{
  "address": "0x411585d0612025411A3A5fFA5069C863B32D3734",
  "abi": [
    {
      "inputs": [
        {
          "internalType": "uint64",
          "name": "_subscriptionId",
          "type": "uint64"
        },
        {
          "internalType": "address",
          "name": "_vrfCoordinator",
          "type": "address"
        },
        {
          "internalType": "bytes32",
          "name": "_keyHash",
          "type": "bytes32"
        },
        {
          "internalType": "uint32",
          "name": "_callbackGasLimit",
          "type": "uint32"
        }
      ],
      "stateMutability": "nonpayable",
      "type": "constructor"
    },
    {
      "inputs": [
        {
          "internalType": "address",
          "name": "have",
          "type": "address"
        },
        {
          "internalType": "address",
          "name": "want",
          "type": "address"
        }
      ],
      "name": "OnlyCoordinatorCanFulfill",
      "type": "error"
    },
    {
      "anonymous": false,
      "inputs": [
        {
          "indexed": true,
          "internalType": "address",
          "name": "owner",
          "type": "address"
        },
        {
          "indexed": true,
          "internalType": "address",
          "name": "approved",
          "type": "address"
        },
        {
          "indexed": true,
          "internalType": "uint256",
          "name": "tokenId",
          "type": "uint256"
        }
      ],
      "name": "Approval",
      "type": "event"
    },
    {
      "anonymous": false,
      "inputs": [
        {
          "indexed": true,
          "internalType": "address",
          "name": "owner",
          "type": "address"
        },
        {
          "indexed": true,
          "internalType": "address",
          "name": "operator",
          "type": "address"
        },
        {
          "indexed": false,
          "internalType": "bool",
          "name": "approved",
          "type": "bool"
        }
      ],
      "name": "ApprovalForAll",
      "type": "event"
    },
    {
      "anonymous": false,
      "inputs": [
        {
          "indexed": true,
          "internalType": "address",
          "name": "winner",
          "type": "address"
        }
      ],
      "name": "FightResulted",
      "type": "event"
    },
    {
      "anonymous": false,
      "inputs": [
        {
          "indexed": false,
          "internalType": "uint256",
          "name": "requestId",
          "type": "uint256"
        },
        {
          "indexed": false,
          "internalType": "uint256[]",
          "name": "randomWords",
          "type": "uint256[]"
        }
      ],
      "name": "RequestFulfilled",
      "type": "event"
    },
    {
      "anonymous": false,
      "inputs": [
        {
          "indexed": false,
          "internalType": "uint256",
          "name": "requestId",
          "type": "uint256"
        },
        {
          "indexed": false,
          "internalType": "uint32",
          "name": "numWords",
          "type": "uint32"
        }
      ],
      "name": "RequestSent",
      "type": "event"
    },
    {
      "anonymous": false,
      "inputs": [
        {
          "indexed": true,
          "internalType": "address",
          "name": "from",
          "type": "address"
        },
        {
          "indexed": true,
          "internalType": "address",
          "name": "to",
          "type": "address"
        },
        {
          "indexed": true,
          "internalType": "uint256",
          "name": "tokenId",
          "type": "uint256"
        }
      ],
      "name": "Transfer",
      "type": "event"
    },
    {
      "inputs": [
        {
          "internalType": "address",
          "name": "to",
          "type": "address"
        },
        {
          "internalType": "uint256",
          "name": "tokenId",
          "type": "uint256"
        }
      ],
      "name": "approve",
      "outputs": [],
      "stateMutability": "nonpayable",
      "type": "function"
    },
    {
      "inputs": [
        {
          "internalType": "uint256",
          "name": "_tokenId",
          "type": "uint256"
        },
        {
          "internalType": "uint256",
          "name": "_toTokenId",
          "type": "uint256"
        }
      ],
      "name": "attack",
      "outputs": [],
      "stateMutability": "payable",
      "type": "function"
    },
    {
      "inputs": [
        {
          "internalType": "address",
          "name": "owner",
          "type": "address"
        }
      ],
      "name": "balanceOf",
      "outputs": [
        {
          "internalType": "uint256",
          "name": "",
          "type": "uint256"
        }
      ],
      "stateMutability": "view",
      "type": "function"
    },
    {
      "inputs": [
        {
          "internalType": "uint256",
          "name": "tokenId",
          "type": "uint256"
        }
      ],
      "name": "getApproved",
      "outputs": [
        {
          "internalType": "address",
          "name": "",
          "type": "address"
        }
      ],
      "stateMutability": "view",
      "type": "function"
    },
    {
      "inputs": [
        {
          "internalType": "uint256",
          "name": "_tokenId",
          "type": "uint256"
        }
      ],
      "name": "getLevel",
      "outputs": [
        {
          "internalType": "uint256",
          "name": "",
          "type": "uint256"
        }
      ],
      "stateMutability": "view",
      "type": "function"
    },
    {
      "inputs": [
        {
          "internalType": "uint256",
          "name": "_tokenId",
          "type": "uint256"
        }
      ],
      "name": "getLockedTime",
      "outputs": [
        {
          "internalType": "uint256",
          "name": "",
          "type": "uint256"
        }
      ],
      "stateMutability": "view",
      "type": "function"
    },
    {
      "inputs": [],
      "name": "getMintFee",
      "outputs": [
        {
          "internalType": "uint256",
          "name": "",
          "type": "uint256"
        }
      ],
      "stateMutability": "pure",
      "type": "function"
    },
    {
      "inputs": [
        {
          "internalType": "uint256",
          "name": "_tokenId",
          "type": "uint256"
        }
      ],
      "name": "getPower",
      "outputs": [
        {
          "internalType": "uint256",
          "name": "",
          "type": "uint256"
        }
      ],
      "stateMutability": "view",
      "type": "function"
    },
    {
      "inputs": [
        {
          "internalType": "uint256",
          "name": "_tokenId",
          "type": "uint256"
        }
      ],
      "name": "getStrength",
      "outputs": [
        {
          "internalType": "uint256",
          "name": "",
          "type": "uint256"
        }
      ],
      "stateMutability": "view",
      "type": "function"
    },
    {
      "inputs": [
        {
          "internalType": "address",
          "name": "owner",
          "type": "address"
        },
        {
          "internalType": "address",
          "name": "operator",
          "type": "address"
        }
      ],
      "name": "isApprovedForAll",
      "outputs": [
        {
          "internalType": "bool",
          "name": "",
          "type": "bool"
        }
      ],
      "stateMutability": "view",
      "type": "function"
    },
    {
      "inputs": [],
      "name": "lastRequestId",
      "outputs": [
        {
          "internalType": "uint256",
          "name": "",
          "type": "uint256"
        }
      ],
      "stateMutability": "view",
      "type": "function"
    },
    {
      "inputs": [],
      "name": "mint",
      "outputs": [],
      "stateMutability": "nonpayable",
      "type": "function"
    },
    {
      "inputs": [],
      "name": "name",
      "outputs": [
        {
          "internalType": "string",
          "name": "",
          "type": "string"
        }
      ],
      "stateMutability": "view",
      "type": "function"
    },
    {
      "inputs": [
        {
          "internalType": "uint256",
          "name": "_tokenId",
          "type": "uint256"
        }
      ],
      "name": "openForFights",
      "outputs": [],
      "stateMutability": "payable",
      "type": "function"
    },
    {
      "inputs": [
        {
          "internalType": "uint256",
          "name": "tokenId",
          "type": "uint256"
        }
      ],
      "name": "ownerOf",
      "outputs": [
        {
          "internalType": "address",
          "name": "",
          "type": "address"
        }
      ],
      "stateMutability": "view",
      "type": "function"
    },
    {
      "inputs": [
        {
          "internalType": "uint256",
          "name": "requestId",
          "type": "uint256"
        },
        {
          "internalType": "uint256[]",
          "name": "randomWords",
          "type": "uint256[]"
        }
      ],
      "name": "rawFulfillRandomWords",
      "outputs": [],
      "stateMutability": "nonpayable",
      "type": "function"
    },
    {
      "inputs": [
        {
          "internalType": "uint256",
          "name": "",
          "type": "uint256"
        }
      ],
      "name": "requestIds",
      "outputs": [
        {
          "internalType": "uint256",
          "name": "",
          "type": "uint256"
        }
      ],
      "stateMutability": "view",
      "type": "function"
    },
    {
      "inputs": [
        {
          "internalType": "uint256",
          "name": "tokenId",
          "type": "uint256"
        }
      ],
      "name": "requestRandomWords",
      "outputs": [
        {
          "internalType": "uint256",
          "name": "requestId",
          "type": "uint256"
        }
      ],
      "stateMutability": "payable",
      "type": "function"
    },
    {
      "inputs": [
        {
          "internalType": "uint256",
          "name": "",
          "type": "uint256"
        }
      ],
      "name": "s_requests",
      "outputs": [
        {
          "internalType": "bool",
          "name": "fulfilled",
          "type": "bool"
        },
        {
          "internalType": "bool",
          "name": "exists",
          "type": "bool"
        },
        {
          "internalType": "address",
          "name": "requestOwner",
          "type": "address"
        },
        {
          "internalType": "uint256",
          "name": "requestTokenId",
          "type": "uint256"
        }
      ],
      "stateMutability": "view",
      "type": "function"
    },
    {
      "inputs": [
        {
          "internalType": "address",
          "name": "from",
          "type": "address"
        },
        {
          "internalType": "address",
          "name": "to",
          "type": "address"
        },
        {
          "internalType": "uint256",
          "name": "tokenId",
          "type": "uint256"
        }
      ],
      "name": "safeTransferFrom",
      "outputs": [],
      "stateMutability": "nonpayable",
      "type": "function"
    },
    {
      "inputs": [
        {
          "internalType": "address",
          "name": "from",
          "type": "address"
        },
        {
          "internalType": "address",
          "name": "to",
          "type": "address"
        },
        {
          "internalType": "uint256",
          "name": "tokenId",
          "type": "uint256"
        },
        {
          "internalType": "bytes",
          "name": "data",
          "type": "bytes"
        }
      ],
      "name": "safeTransferFrom",
      "outputs": [],
      "stateMutability": "nonpayable",
      "type": "function"
    },
    {
      "inputs": [
        {
          "internalType": "address",
          "name": "operator",
          "type": "address"
        },
        {
          "internalType": "bool",
          "name": "approved",
          "type": "bool"
        }
      ],
      "name": "setApprovalForAll",
      "outputs": [],
      "stateMutability": "nonpayable",
      "type": "function"
    },
    {
      "inputs": [
        {
          "internalType": "bytes4",
          "name": "interfaceId",
          "type": "bytes4"
        }
      ],
      "name": "supportsInterface",
      "outputs": [
        {
          "internalType": "bool",
          "name": "",
          "type": "bool"
        }
      ],
      "stateMutability": "view",
      "type": "function"
    },
    {
      "inputs": [],
      "name": "symbol",
      "outputs": [
        {
          "internalType": "string",
          "name": "",
          "type": "string"
        }
      ],
      "stateMutability": "view",
      "type": "function"
    },
    {
      "inputs": [
        {
          "internalType": "uint256",
          "name": "",
          "type": "uint256"
        }
      ],
      "name": "tokenIdToRequest",
      "outputs": [
        {
          "internalType": "bool",
          "name": "",
          "type": "bool"
        }
      ],
      "stateMutability": "view",
      "type": "function"
    },
    {
      "inputs": [
        {
          "internalType": "uint256",
          "name": "tokenId",
          "type": "uint256"
        }
      ],
      "name": "tokenURI",
      "outputs": [
        {
          "internalType": "string",
          "name": "",
          "type": "string"
        }
      ],
      "stateMutability": "view",
      "type": "function"
    },
    {
      "inputs": [
        {
          "internalType": "address",
          "name": "from",
          "type": "address"
        },
        {
          "internalType": "address",
          "name": "to",
          "type": "address"
        },
        {
          "internalType": "uint256",
          "name": "tokenId",
          "type": "uint256"
        }
      ],
      "name": "transferFrom",
      "outputs": [],
      "stateMutability": "nonpayable",
      "type": "function"
    },
    {
      "inputs": [
        {
          "internalType": "uint256",
          "name": "tokenId",
          "type": "uint256"
        }
      ],
      "name": "updateMetadata",
      "outputs": [],
      "stateMutability": "nonpayable",
      "type": "function"
    },
    {
      "inputs": [],
      "name": "withdraw",
      "outputs": [],
      "stateMutability": "nonpayable",
      "type": "function"
    }
  ],
  "transactionHash": "0xf132e2bcb07aa1e632cd752a72b07b56e210e116a10fc832dc9394cbf22d55a1",
  "args": [
    "2444",
    "0x7a1BaC17Ccc5b313516C5E16fb24f7659aA5ebed",
    "0x4b09e658ed251bcafeebbc69400383d49f344ace09b9576fe248bb02c003fe9f",
    "500000"
  ],
  "numDeployments": 1,
  "solcInputHash": "2414e934a3950172b0040bc89b1c89b1",
  "bytecode": "0x60c06040523480156200001157600080fd5b506040516200608738038062006087833981810160405281019062000037919062000330565b826040518060400160405280600c81526020017f5765623357617272696f727300000000000000000000000000000000000000008152506040518060400160405280600381526020017f57335700000000000000000000000000000000000000000000000000000000008152508160009080519060200190620000bc92919062000224565b508060019080519060200190620000d592919062000224565b5050508073ffffffffffffffffffffffffffffffffffffffff1660808173ffffffffffffffffffffffffffffffffffffffff1660601b815250505082600a60006101000a81548173ffffffffffffffffffffffffffffffffffffffff021916908373ffffffffffffffffffffffffffffffffffffffff16021790555081600b8190555082600e60006101000a81548173ffffffffffffffffffffffffffffffffffffffff021916908373ffffffffffffffffffffffffffffffffffffffff1602179055508367ffffffffffffffff1660a08167ffffffffffffffff1660c01b8152505080600c60006101000a81548163ffffffff021916908363ffffffff16021790555033600860006101000a81548173ffffffffffffffffffffffffffffffffffffffff021916908373ffffffffffffffffffffffffffffffffffffffff16021790555050505050620004d6565b828054620002329062000404565b90600052602060002090601f016020900481019282620002565760008555620002a2565b82601f106200027157805160ff1916838001178555620002a2565b82800160010185558215620002a2579182015b82811115620002a157825182559160200191906001019062000284565b5b509050620002b19190620002b5565b5090565b5b80821115620002d0576000816000905550600101620002b6565b5090565b600081519050620002e5816200046e565b92915050565b600081519050620002fc8162000488565b92915050565b6000815190506200031381620004a2565b92915050565b6000815190506200032a81620004bc565b92915050565b600080600080608085870312156200034d576200034c62000469565b5b60006200035d8782880162000319565b94505060206200037087828801620002d4565b93505060406200038387828801620002eb565b9250506060620003968782880162000302565b91505092959194509250565b6000620003af82620003c0565b9050919050565b6000819050919050565b600073ffffffffffffffffffffffffffffffffffffffff82169050919050565b600063ffffffff82169050919050565b600067ffffffffffffffff82169050919050565b600060028204905060018216806200041d57607f821691505b602082108114156200043457620004336200043a565b5b50919050565b7f4e487b7100000000000000000000000000000000000000000000000000000000600052602260045260246000fd5b600080fd5b6200047981620003a2565b81146200048557600080fd5b50565b6200049381620003b6565b81146200049f57600080fd5b50565b620004ad81620003e0565b8114620004b957600080fd5b50565b620004c781620003f0565b8114620004d357600080fd5b50565b60805160601c60a05160c01c615b7e6200050960003960006111e9015260008181610a820152610ad60152615b7e6000f3fe6080604052600436106101c25760003560e01c806386481d40116100f7578063bc85777c11610095578063e1fa763811610064578063e1fa763814610683578063e53fbda61461069f578063e985e9c5146106dc578063fc2a88c314610719576101c2565b8063bc85777c146105bd578063bfcf0c85146105ed578063c57413fe14610609578063c87b56dd14610646576101c2565b80639c09628d116100d15780639c09628d14610502578063a168fa891461052b578063a22cb4651461056b578063b88d4fde14610594576101c2565b806386481d401461045d5780638796ba8c1461049a57806395d89b41146104d7576101c2565b80631fe543e31161016457806342842e0e1161013e57806342842e0e1461038f5780636352211e146103b857806370a08231146103f55780637a5caab314610432576101c2565b80631fe543e31461032657806323b872dd1461034f5780633ccfd60b14610378576101c2565b8063081812fc116101a0578063081812fc1461026c578063095ea7b3146102a95780631249c58b146102d25780631734bce2146102e9576101c2565b8063017fe809146101c757806301ffc9a71461020457806306fdde0314610241575b600080fd5b3480156101d357600080fd5b506101ee60048036038101906101e99190613993565b610744565b6040516101fb91906148e9565b60405180910390f35b34801561021057600080fd5b5061022b60048036038101906102269190613939565b610769565b6040516102389190614514565b60405180910390f35b34801561024d57600080fd5b5061025661084b565b60405161026391906145c7565b60405180910390f35b34801561027857600080fd5b50610293600480360381019061028e9190613993565b6108dd565b6040516102a09190614484565b60405180910390f35b3480156102b557600080fd5b506102d060048036038101906102cb91906138f9565b610923565b005b3480156102de57600080fd5b506102e7610a3b565b005b3480156102f557600080fd5b50610310600480360381019061030b9190613993565b610a60565b60405161031d91906148e9565b60405180910390f35b34801561033257600080fd5b5061034d600480360381019061034891906139ed565b610a80565b005b34801561035b57600080fd5b50610376600480360381019061037191906137e3565b610b40565b005b34801561038457600080fd5b5061038d610ba0565b005b34801561039b57600080fd5b506103b660048036038101906103b191906137e3565b610cad565b005b3480156103c457600080fd5b506103df60048036038101906103da9190613993565b610ccd565b6040516103ec9190614484565b60405180910390f35b34801561040157600080fd5b5061041c60048036038101906104179190613776565b610d7f565b60405161042991906148e9565b60405180910390f35b34801561043e57600080fd5b50610447610e37565b60405161045491906148e9565b60405180910390f35b34801561046957600080fd5b50610484600480360381019061047f9190613993565b610e47565b60405161049191906148e9565b60405180910390f35b3480156104a657600080fd5b506104c160048036038101906104bc9190613993565b610e7c565b6040516104ce91906148e9565b60405180910390f35b3480156104e357600080fd5b506104ec610ea0565b6040516104f991906145c7565b60405180910390f35b34801561050e57600080fd5b5061052960048036038101906105249190613993565b610f32565b005b34801561053757600080fd5b50610552600480360381019061054d9190613993565b610fa0565b604051610562949392919061452f565b60405180910390f35b34801561057757600080fd5b50610592600480360381019061058d91906138b9565b61100a565b005b3480156105a057600080fd5b506105bb60048036038101906105b69190613836565b611020565b005b6105d760048036038101906105d29190613993565b611082565b6040516105e491906148e9565b60405180910390f35b61060760048036038101906106029190613993565b61147e565b005b34801561061557600080fd5b50610630600480360381019061062b9190613993565b611729565b60405161063d9190614514565b60405180910390f35b34801561065257600080fd5b5061066d60048036038101906106689190613993565b611749565b60405161067a91906145c7565b60405180910390f35b61069d60048036038101906106989190613a49565b61185c565b005b3480156106ab57600080fd5b506106c660048036038101906106c19190613993565b611f0a565b6040516106d391906148e9565b60405180910390f35b3480156106e857600080fd5b5061070360048036038101906106fe91906137a3565b611f2f565b6040516107109190614514565b60405180910390f35b34801561072557600080fd5b5061072e611fc3565b60405161073b91906148e9565b60405180910390f35b6000806009600084815260200190815260200160002060010154905080915050919050565b60007f80ac58cd000000000000000000000000000000000000000000000000000000007bffffffffffffffffffffffffffffffffffffffffffffffffffffffff1916827bffffffffffffffffffffffffffffffffffffffffffffffffffffffff1916148061083457507f5b5e139f000000000000000000000000000000000000000000000000000000007bffffffffffffffffffffffffffffffffffffffffffffffffffffffff1916827bffffffffffffffffffffffffffffffffffffffffffffffffffffffff1916145b80610844575061084382611fc9565b5b9050919050565b60606000805461085a90614ce2565b80601f016020809104026020016040519081016040528092919081815260200182805461088690614ce2565b80156108d35780601f106108a8576101008083540402835291602001916108d3565b820191906000526020600020905b8154815290600101906020018083116108b657829003601f168201915b5050505050905090565b60006108e882612033565b6004600083815260200190815260200160002060009054906101000a900473ffffffffffffffffffffffffffffffffffffffff169050919050565b600061092e82610ccd565b90508073ffffffffffffffffffffffffffffffffffffffff168373ffffffffffffffffffffffffffffffffffffffff16141561099f576040517f08c379a000000000000000000000000000000000000000000000000000000000815260040161099690614849565b60405180910390fd5b8073ffffffffffffffffffffffffffffffffffffffff166109be61207e565b73ffffffffffffffffffffffffffffffffffffffff1614806109ed57506109ec816109e761207e565b611f2f565b5b610a2c576040517f08c379a0000000000000000000000000000000000000000000000000000000008152600401610a2390614789565b60405180910390fd5b610a368383612086565b505050565b610a45600761213f565b6000610a516007612155565b9050610a5d3382612163565b50565b600060096000838152602001908152602001600020600001549050919050565b7f000000000000000000000000000000000000000000000000000000000000000073ffffffffffffffffffffffffffffffffffffffff163373ffffffffffffffffffffffffffffffffffffffff1614610b3257337f00000000000000000000000000000000000000000000000000000000000000006040517f1cf993f4000000000000000000000000000000000000000000000000000000008152600401610b2992919061449f565b60405180910390fd5b610b3c8282612181565b5050565b610b51610b4b61207e565b826123a2565b610b90576040517f08c379a0000000000000000000000000000000000000000000000000000000008152600401610b87906148a9565b60405180910390fd5b610b9b838383612437565b505050565b600860009054906101000a900473ffffffffffffffffffffffffffffffffffffffff1673ffffffffffffffffffffffffffffffffffffffff163373ffffffffffffffffffffffffffffffffffffffff1614610bfa57600080fd5b6000600860009054906101000a900473ffffffffffffffffffffffffffffffffffffffff1673ffffffffffffffffffffffffffffffffffffffff16600a600947610c449190614b55565b610c4e9190614af3565b604051610c5a9061444d565b60006040518083038185875af1925050503d8060008114610c97576040519150601f19603f3d011682016040523d82523d6000602084013e610c9c565b606091505b5050905080610caa57600080fd5b50565b610cc883838360405180602001604052806000815250611020565b505050565b6000806002600084815260200190815260200160002060009054906101000a900473ffffffffffffffffffffffffffffffffffffffff169050600073ffffffffffffffffffffffffffffffffffffffff168173ffffffffffffffffffffffffffffffffffffffff161415610d76576040517f08c379a0000000000000000000000000000000000000000000000000000000008152600401610d6d90614809565b60405180910390fd5b80915050919050565b60008073ffffffffffffffffffffffffffffffffffffffff168273ffffffffffffffffffffffffffffffffffffffff161415610df0576040517f08c379a0000000000000000000000000000000000000000000000000000000008152600401610de790614729565b60405180910390fd5b600360008373ffffffffffffffffffffffffffffffffffffffff1673ffffffffffffffffffffffffffffffffffffffff168152602001908152602001600020549050919050565b60006702c68af0bb140000905090565b6000806009600084815260200190815260200160002060030160009054906101000a900460ff1660ff16905080915050919050565b600f8181548110610e8c57600080fd5b906000526020600020016000915090505481565b606060018054610eaf90614ce2565b80601f0160208091040260200160405190810160405280929190818152602001828054610edb90614ce2565b8015610f285780601f10610efd57610100808354040283529160200191610f28565b820191906000526020600020905b815481529060010190602001808311610f0b57829003601f168201915b5050505050905090565b6000600960008381526020019081526020016000206001015411610f8b576040517f08c379a0000000000000000000000000000000000000000000000000000000008152600401610f8290614609565b60405180910390fd5b610f9d81610f988361269e565b612706565b50565b600d6020528060005260406000206000915090508060000160009054906101000a900460ff16908060000160019054906101000a900460ff16908060020160009054906101000a900473ffffffffffffffffffffffffffffffffffffffff16908060030154905084565b61101c61101561207e565b838361277a565b5050565b61103161102b61207e565b836123a2565b611070576040517f08c379a0000000000000000000000000000000000000000000000000000000008152600401611067906148a9565b60405180910390fd5b61107c848484846128e7565b50505050565b60006011600083815260200190815260200160002060009054906101000a900460ff16156110e5576040517f08c379a00000000000000000000000000000000000000000000000000000000081526004016110dc906147e9565b60405180910390fd5b6702c68af0bb140000341015611130576040517f08c379a0000000000000000000000000000000000000000000000000000000008152600401611127906148c9565b60405180910390fd5b61113982610ccd565b73ffffffffffffffffffffffffffffffffffffffff163373ffffffffffffffffffffffffffffffffffffffff16146111a6576040517f08c379a000000000000000000000000000000000000000000000000000000000815260040161119d906147c9565b60405180910390fd5b600e60009054906101000a900473ffffffffffffffffffffffffffffffffffffffff1673ffffffffffffffffffffffffffffffffffffffff16635d3b1d30600b547f00000000000000000000000000000000000000000000000000000000000000006003600c60009054906101000a900463ffffffff1660016040518663ffffffff1660e01b815260040161123f959493929190614574565b602060405180830381600087803b15801561125957600080fd5b505af115801561126d573d6000803e3d6000fd5b505050506040513d601f19601f8201168201806040525081019061129191906139c0565b90506040518060a00160405280600015158152602001600115158152602001600067ffffffffffffffff8111156112cb576112ca614e7b565b5b6040519080825280602002602001820160405280156112f95781602001602082028036833780820191505090505b5081526020013373ffffffffffffffffffffffffffffffffffffffff16815260200183815250600d600083815260200190815260200160002060008201518160000160006101000a81548160ff02191690831515021790555060208201518160000160016101000a81548160ff021916908315150217905550604082015181600101908051906020019061138e9291906134ba565b5060608201518160020160006101000a81548173ffffffffffffffffffffffffffffffffffffffff021916908373ffffffffffffffffffffffffffffffffffffffff16021790555060808201518160030155905050600f8190806001815401808255809150506001900390600052602060002001600090919091909150558060108190555060016011600084815260200190815260200160002060006101000a81548160ff0219169083151502179055507fcc58b13ad3eab50626c6a6300b1d139cd6ebb1688a7cced9461c2f7e762665ee816001604051611471929190614934565b60405180910390a1919050565b8060006009600083815260200190815260200160002060000154905060008110156114de576040517f08c379a00000000000000000000000000000000000000000000000000000000081526004016114d590614869565b60405180910390fd5b823373ffffffffffffffffffffffffffffffffffffffff166114ff82610ccd565b73ffffffffffffffffffffffffffffffffffffffff1614611555576040517f08c379a000000000000000000000000000000000000000000000000000000000815260040161154c906147c9565b60405180910390fd5b8361155f81612943565b61159e576040517f08c379a000000000000000000000000000000000000000000000000000000000815260040161159590614889565b60405180910390fd5b3073ffffffffffffffffffffffffffffffffffffffff166115be866108dd565b73ffffffffffffffffffffffffffffffffffffffff1614611614576040517f08c379a000000000000000000000000000000000000000000000000000000000815260040161160b906145e9565b60405180910390fd5b6011600086815260200190815260200160002060009054906101000a900460ff1661163e57600080fd5b67016345785d8a0000341015611689576040517f08c379a0000000000000000000000000000000000000000000000000000000008152600401611680906148c9565b60405180910390fd5b600015156009600087815260200190815260200160002060030160019054906101000a900460ff161515146116f3576040517f08c379a00000000000000000000000000000000000000000000000000000000081526004016116ea906146c9565b60405180910390fd5b60016009600087815260200190815260200160002060030160016101000a81548160ff0219169083151502179055505050505050565b60116020528060005260406000206000915054906101000a900460ff1681565b606061175482612033565b600060066000848152602001908152602001600020805461177490614ce2565b80601f01602080910402602001604051908101604052809291908181526020018280546117a090614ce2565b80156117ed5780601f106117c2576101008083540402835291602001916117ed565b820191906000526020600020905b8154815290600101906020018083116117d057829003601f168201915b5050505050905060006117fe6129af565b9050600081511415611814578192505050611857565b6000825111156118495780826040516020016118319291906142aa565b60405160208183030381529060405292505050611857565b611852846129c6565b925050505b919050565b8160006009600083815260200190815260200160002060000154905060008110156118bc576040517f08c379a00000000000000000000000000000000000000000000000000000000081526004016118b390614869565b60405180910390fd5b833373ffffffffffffffffffffffffffffffffffffffff166118dd82610ccd565b73ffffffffffffffffffffffffffffffffffffffff1614611933576040517f08c379a000000000000000000000000000000000000000000000000000000000815260040161192a906147c9565b60405180910390fd5b8461193d81612943565b61197c576040517f08c379a000000000000000000000000000000000000000000000000000000000815260040161197390614889565b60405180910390fd5b3073ffffffffffffffffffffffffffffffffffffffff1661199c876108dd565b73ffffffffffffffffffffffffffffffffffffffff16146119f2576040517f08c379a00000000000000000000000000000000000000000000000000000000081526004016119e9906145e9565b60405180910390fd5b67016345785d8a0000341015611a3d576040517f08c379a0000000000000000000000000000000000000000000000000000000008152600401611a34906148c9565b60405180910390fd5b600115156009600087815260200190815260200160002060030160019054906101000a900460ff16151514611aa7576040517f08c379a0000000000000000000000000000000000000000000000000000000008152600401611a9e90614769565b60405180910390fd5b611ab085610ccd565b73ffffffffffffffffffffffffffffffffffffffff163373ffffffffffffffffffffffffffffffffffffffff161415611b1e576040517f08c379a0000000000000000000000000000000000000000000000000000000008152600401611b15906146a9565b60405180910390fd5b6011600087815260200190815260200160002060009054906101000a900460ff168015611b6857506011600086815260200190815260200160002060009054906101000a900460ff165b611b7157600080fd5b6000611b7d8787612a2e565b90508015611d4157611b8e87612ac7565b603c600960008981526020019081526020016000206000016000828254611bb59190614a66565b925050819055506000611bc788610ccd565b73ffffffffffffffffffffffffffffffffffffffff16600a601167016345785d8a0000611bf49190614b55565b611bfe9190614af3565b604051611c0a9061444d565b60006040518083038185875af1925050503d8060008114611c47576040519150601f19603f3d011682016040523d82523d6000602084013e611c4c565b606091505b5050905080611c90576040517f08c379a0000000000000000000000000000000000000000000000000000000008152600401611c8790614649565b60405180910390fd5b60096000888152602001908152602001600020600080820160009055600182016000905560028201600090556003820160006101000a81549060ff02191690556003820160016101000a81549060ff02191690555050611cef87612bb0565b611cf888610f32565b3373ffffffffffffffffffffffffffffffffffffffff167f48d59989e3afe8c7bdef5e9e8ce9db1446ea64c92332c449dec6ab47a43ef3e560405160405180910390a250611f01565b611d4a86612ac7565b603c600960008881526020019081526020016000206000016000828254611d719190614a66565b925050819055506000611d8387610ccd565b73ffffffffffffffffffffffffffffffffffffffff16600a601367016345785d8a0000611db09190614b55565b611dba9190614af3565b604051611dc69061444d565b60006040518083038185875af1925050503d8060008114611e03576040519150601f19603f3d011682016040523d82523d6000602084013e611e08565b606091505b5050905080611e4c576040517f08c379a0000000000000000000000000000000000000000000000000000000008152600401611e4390614649565b60405180910390fd5b60096000888152602001908152602001600020600080820160009055600182016000905560028201600090556003820160006101000a81549060ff02191690556003820160016101000a81549060ff02191690555050611eab88612bb0565b611eb487610f32565b611ebd87610ccd565b73ffffffffffffffffffffffffffffffffffffffff167f48d59989e3afe8c7bdef5e9e8ce9db1446ea64c92332c449dec6ab47a43ef3e560405160405180910390a2505b50505050505050565b6000806009600084815260200190815260200160002060020154905080915050919050565b6000600560008473ffffffffffffffffffffffffffffffffffffffff1673ffffffffffffffffffffffffffffffffffffffff16815260200190815260200160002060008373ffffffffffffffffffffffffffffffffffffffff1673ffffffffffffffffffffffffffffffffffffffff16815260200190815260200160002060009054906101000a900460ff16905092915050565b60105481565b60007f01ffc9a7000000000000000000000000000000000000000000000000000000007bffffffffffffffffffffffffffffffffffffffffffffffffffffffff1916827bffffffffffffffffffffffffffffffffffffffffffffffffffffffff1916149050919050565b61203c81612943565b61207b576040517f08c379a000000000000000000000000000000000000000000000000000000000815260040161207290614809565b60405180910390fd5b50565b600033905090565b816004600083815260200190815260200160002060006101000a81548173ffffffffffffffffffffffffffffffffffffffff021916908373ffffffffffffffffffffffffffffffffffffffff160217905550808273ffffffffffffffffffffffffffffffffffffffff166120f983610ccd565b73ffffffffffffffffffffffffffffffffffffffff167f8c5be1e5ebec7d5bd14f71427d1e84f3dd0314c0f7b2291e5b200ac8c7c3b92560405160405180910390a45050565b6001816000016000828254019250508190555050565b600081600001549050919050565b61217d828260405180602001604052806000815250612c03565b5050565b600d600083815260200190815260200160002060000160019054906101000a900460ff166121e4576040517f08c379a00000000000000000000000000000000000000000000000000000000081526004016121db90614829565b60405180910390fd5b6001600d600084815260200190815260200160002060000160006101000a81548160ff02191690831515021790555080600d6000848152602001908152602001600020600101908051906020019061223d9291906134ba565b50600060648260008151811061225657612255614e4c565b5b60200260200101516122689190614d8e565b9050600060646127108460008151811061228557612284614e4c565b5b60200260200101516122979190614af3565b6122a19190614d8e565b90506000600d60008681526020019081526020016000206003015490506040518060a0016040528060008152602001848152602001838152602001600160ff168152602001600015158152506009600083815260200190815260200160002060008201518160000155602082015181600101556040820151816002015560608201518160030160006101000a81548160ff021916908360ff16021790555060808201518160030160016101000a81548160ff0219169083151502179055509050507ffe2e2d779dba245964d4e3ef9b994be63856fd568bf7d3ca9e224755cb1bd54d8585604051612393929190614904565b60405180910390a15050505050565b6000806123ae83610ccd565b90508073ffffffffffffffffffffffffffffffffffffffff168473ffffffffffffffffffffffffffffffffffffffff1614806123f057506123ef8185611f2f565b5b8061242e57508373ffffffffffffffffffffffffffffffffffffffff16612416846108dd565b73ffffffffffffffffffffffffffffffffffffffff16145b91505092915050565b8273ffffffffffffffffffffffffffffffffffffffff1661245782610ccd565b73ffffffffffffffffffffffffffffffffffffffff16146124ad576040517f08c379a00000000000000000000000000000000000000000000000000000000081526004016124a490614669565b60405180910390fd5b600073ffffffffffffffffffffffffffffffffffffffff168273ffffffffffffffffffffffffffffffffffffffff16141561251d576040517f08c379a0000000000000000000000000000000000000000000000000000000008152600401612514906146e9565b60405180910390fd5b612528838383612c5e565b612533600082612086565b6001600360008573ffffffffffffffffffffffffffffffffffffffff1673ffffffffffffffffffffffffffffffffffffffff16815260200190815260200160002060008282546125839190614baf565b925050819055506001600360008473ffffffffffffffffffffffffffffffffffffffff1673ffffffffffffffffffffffffffffffffffffffff16815260200190815260200160002060008282546125da9190614a66565b92505081905550816002600083815260200190815260200160002060006101000a81548173ffffffffffffffffffffffffffffffffffffffff021916908373ffffffffffffffffffffffffffffffffffffffff160217905550808273ffffffffffffffffffffffffffffffffffffffff168473ffffffffffffffffffffffffffffffffffffffff167fddf252ad1be2c89b69c2b068fc378daa952ba7f163c4a11628f55a4df523b3ef60405160405180910390a4612699838383612c63565b505050565b606060006126ab83612c68565b6126b484612dc9565b6040516020016126c59291906143ba565b60405160208183030381529060405290506126df81612e53565b6040516020016126ef919061442b565b604051602081830303815290604052915050919050565b61270f82612943565b61274e576040517f08c379a000000000000000000000000000000000000000000000000000000000815260040161274590614749565b60405180910390fd5b80600660008481526020019081526020016000209080519060200190612775929190613507565b505050565b8173ffffffffffffffffffffffffffffffffffffffff168373ffffffffffffffffffffffffffffffffffffffff1614156127e9576040517f08c379a00000000000000000000000000000000000000000000000000000000081526004016127e090614709565b60405180910390fd5b80600560008573ffffffffffffffffffffffffffffffffffffffff1673ffffffffffffffffffffffffffffffffffffffff16815260200190815260200160002060008473ffffffffffffffffffffffffffffffffffffffff1673ffffffffffffffffffffffffffffffffffffffff16815260200190815260200160002060006101000a81548160ff0219169083151502179055508173ffffffffffffffffffffffffffffffffffffffff168373ffffffffffffffffffffffffffffffffffffffff167f17307eab39ab6107e8899845ad3d59bd9653f200f220920489ca2b5937696c31836040516128da9190614514565b60405180910390a3505050565b6128f2848484612437565b6128fe84848484612fb7565b61293d576040517f08c379a000000000000000000000000000000000000000000000000000000000815260040161293490614629565b60405180910390fd5b50505050565b60008073ffffffffffffffffffffffffffffffffffffffff166002600084815260200190815260200160002060009054906101000a900473ffffffffffffffffffffffffffffffffffffffff1673ffffffffffffffffffffffffffffffffffffffff1614159050919050565b606060405180602001604052806000815250905090565b60606129d182612033565b60006129db6129af565b905060008151116129fb5760405180602001604052806000815250612a26565b80612a0584612c68565b604051602001612a169291906142aa565b6040516020818303038152906040525b915050919050565b600080612a3a84610e47565b90506000612a4785610744565b90506000612a5486611f0a565b90506000612a6186610e47565b90506000612a6e87610744565b90506000612a7b88611f0a565b90506000612a8a87878761314e565b90506000612a9985858561314e565b905080821115612ab457600198505050505050505050612ac1565b6000985050505050505050505b92915050565b60016009600083815260200190815260200160002060030160008282829054906101000a900460ff16612afa9190614abc565b92506101000a81548160ff021916908360ff160217905550606460ff16606960ff166009600084815260200190815260200160002060010154612b3d9190614b55565b612b479190614af3565b600960008381526020019081526020016000206001018190555060646069612b6f9190614b24565b60ff166009600083815260200190815260200160002060020154612b939190614b55565b600960008381526020019081526020016000206002018190555050565b612bb9816131a0565b6000600660008381526020019081526020016000208054612bd990614ce2565b905014612c0057600660008281526020019081526020016000206000612bff919061358d565b5b50565b612c0d83836132bd565b612c1a6000848484612fb7565b612c59576040517f08c379a0000000000000000000000000000000000000000000000000000000008152600401612c5090614629565b60405180910390fd5b505050565b505050565b505050565b60606000821415612cb0576040518060400160405280600181526020017f30000000000000000000000000000000000000000000000000000000000000008152509050612dc4565b600082905060005b60008214612ce2578080612ccb90614d45565b915050600a82612cdb9190614af3565b9150612cb8565b60008167ffffffffffffffff811115612cfe57612cfd614e7b565b5b6040519080825280601f01601f191660200182016040528015612d305781602001600182028036833780820191505090505b5090505b60008514612dbd57600182612d499190614baf565b9150600a85612d589190614d8e565b6030612d649190614a66565b60f81b818381518110612d7a57612d79614e4c565b5b60200101907effffffffffffffffffffffffffffffffffffffffffffffffffffffffffffff1916908160001a905350600a85612db69190614af3565b9450612d34565b8093505050505b919050565b60606000612dde612dd984610e47565b612c68565b612def612dea85610744565b612c68565b612e00612dfb86611f0a565b612c68565b604051602001612e12939291906142ce565b6040516020818303038152906040529050612e2c81612e53565b604051602001612e3c9190614462565b604051602081830303815290604052915050919050565b6060600082511415612e7657604051806020016040528060008152509050612fb2565b6000604051806060016040528060408152602001615b096040913990506000600360028551612ea59190614a66565b612eaf9190614af3565b6004612ebb9190614b55565b67ffffffffffffffff811115612ed457612ed3614e7b565b5b6040519080825280601f01601f191660200182016040528015612f065781602001600182028036833780820191505090505b509050600182016020820185865187015b80821015612f72576003820191508151603f8160121c168501518453600184019350603f81600c1c168501518453600184019350603f8160061c168501518453600184019350603f8116850151845360018401935050612f17565b5050600386510660018114612f8e5760028114612fa157612fa9565b603d6001830353603d6002830353612fa9565b603d60018303535b50505080925050505b919050565b6000612fd88473ffffffffffffffffffffffffffffffffffffffff16613497565b15613141578373ffffffffffffffffffffffffffffffffffffffff1663150b7a0261300161207e565b8786866040518563ffffffff1660e01b815260040161302394939291906144c8565b602060405180830381600087803b15801561303d57600080fd5b505af192505050801561306e57506040513d601f19601f8201168201806040525081019061306b9190613966565b60015b6130f1573d806000811461309e576040519150601f19603f3d011682016040523d82523d6000602084013e6130a3565b606091505b506000815114156130e9576040517f08c379a00000000000000000000000000000000000000000000000000000000081526004016130e090614629565b60405180910390fd5b805181602001fd5b63150b7a0260e01b7bffffffffffffffffffffffffffffffffffffffffffffffffffffffff1916817bffffffffffffffffffffffffffffffffffffffffffffffffffffffff191614915050613146565b600190505b949350505050565b600060068261315d9190614b55565b60048461316a9190614b55565b600a600b876131799190614b55565b6131839190614af3565b61318d9190614a66565b6131979190614a66565b90509392505050565b60006131ab82610ccd565b90506131b981600084612c5e565b6131c4600083612086565b6001600360008373ffffffffffffffffffffffffffffffffffffffff1673ffffffffffffffffffffffffffffffffffffffff16815260200190815260200160002060008282546132149190614baf565b925050819055506002600083815260200190815260200160002060006101000a81549073ffffffffffffffffffffffffffffffffffffffff021916905581600073ffffffffffffffffffffffffffffffffffffffff168273ffffffffffffffffffffffffffffffffffffffff167fddf252ad1be2c89b69c2b068fc378daa952ba7f163c4a11628f55a4df523b3ef60405160405180910390a46132b981600084612c63565b5050565b600073ffffffffffffffffffffffffffffffffffffffff168273ffffffffffffffffffffffffffffffffffffffff16141561332d576040517f08c379a0000000000000000000000000000000000000000000000000000000008152600401613324906147a9565b60405180910390fd5b61333681612943565b15613376576040517f08c379a000000000000000000000000000000000000000000000000000000000815260040161336d90614689565b60405180910390fd5b61338260008383612c5e565b6001600360008473ffffffffffffffffffffffffffffffffffffffff1673ffffffffffffffffffffffffffffffffffffffff16815260200190815260200160002060008282546133d29190614a66565b92505081905550816002600083815260200190815260200160002060006101000a81548173ffffffffffffffffffffffffffffffffffffffff021916908373ffffffffffffffffffffffffffffffffffffffff160217905550808273ffffffffffffffffffffffffffffffffffffffff16600073ffffffffffffffffffffffffffffffffffffffff167fddf252ad1be2c89b69c2b068fc378daa952ba7f163c4a11628f55a4df523b3ef60405160405180910390a461349360008383612c63565b5050565b6000808273ffffffffffffffffffffffffffffffffffffffff163b119050919050565b8280548282559060005260206000209081019282156134f6579160200282015b828111156134f55782518255916020019190600101906134da565b5b50905061350391906135cd565b5090565b82805461351390614ce2565b90600052602060002090601f016020900481019282613535576000855561357c565b82601f1061354e57805160ff191683800117855561357c565b8280016001018555821561357c579182015b8281111561357b578251825591602001919060010190613560565b5b50905061358991906135cd565b5090565b50805461359990614ce2565b6000825580601f106135ab57506135ca565b601f0160209004906000526020600020908101906135c991906135cd565b5b50565b5b808211156135e65760008160009055506001016135ce565b5090565b60006135fd6135f884614982565b61495d565b905080838252602082019050828560208602820111156136205761361f614eaf565b5b60005b858110156136505781613636888261374c565b845260208401935060208301925050600181019050613623565b5050509392505050565b600061366d613668846149ae565b61495d565b90508281526020810184848401111561368957613688614eb4565b5b613694848285614ca0565b509392505050565b6000813590506136ab81615aac565b92915050565b600082601f8301126136c6576136c5614eaa565b5b81356136d68482602086016135ea565b91505092915050565b6000813590506136ee81615ac3565b92915050565b60008135905061370381615ada565b92915050565b60008151905061371881615ada565b92915050565b600082601f83011261373357613732614eaa565b5b813561374384826020860161365a565b91505092915050565b60008135905061375b81615af1565b92915050565b60008151905061377081615af1565b92915050565b60006020828403121561378c5761378b614ebe565b5b600061379a8482850161369c565b91505092915050565b600080604083850312156137ba576137b9614ebe565b5b60006137c88582860161369c565b92505060206137d98582860161369c565b9150509250929050565b6000806000606084860312156137fc576137fb614ebe565b5b600061380a8682870161369c565b935050602061381b8682870161369c565b925050604061382c8682870161374c565b9150509250925092565b600080600080608085870312156138505761384f614ebe565b5b600061385e8782880161369c565b945050602061386f8782880161369c565b93505060406138808782880161374c565b925050606085013567ffffffffffffffff8111156138a1576138a0614eb9565b5b6138ad8782880161371e565b91505092959194509250565b600080604083850312156138d0576138cf614ebe565b5b60006138de8582860161369c565b92505060206138ef858286016136df565b9150509250929050565b600080604083850312156139105761390f614ebe565b5b600061391e8582860161369c565b925050602061392f8582860161374c565b9150509250929050565b60006020828403121561394f5761394e614ebe565b5b600061395d848285016136f4565b91505092915050565b60006020828403121561397c5761397b614ebe565b5b600061398a84828501613709565b91505092915050565b6000602082840312156139a9576139a8614ebe565b5b60006139b78482850161374c565b91505092915050565b6000602082840312156139d6576139d5614ebe565b5b60006139e484828501613761565b91505092915050565b60008060408385031215613a0457613a03614ebe565b5b6000613a128582860161374c565b925050602083013567ffffffffffffffff811115613a3357613a32614eb9565b5b613a3f858286016136b1565b9150509250929050565b60008060408385031215613a6057613a5f614ebe565b5b6000613a6e8582860161374c565b9250506020613a7f8582860161374c565b9150509250929050565b6000613a95838361426e565b60208301905092915050565b613aaa81614be3565b82525050565b6000613abb826149ef565b613ac58185614a1d565b9350613ad0836149df565b8060005b83811015613b01578151613ae88882613a89565b9750613af383614a10565b925050600181019050613ad4565b5085935050505092915050565b613b1781614bf5565b82525050565b613b2681614c01565b82525050565b6000613b37826149fa565b613b418185614a2e565b9350613b51818560208601614caf565b613b5a81614ec3565b840191505092915050565b6000613b7082614a05565b613b7a8185614a4a565b9350613b8a818560208601614caf565b613b9381614ec3565b840191505092915050565b6000613ba982614a05565b613bb38185614a5b565b9350613bc3818560208601614caf565b80840191505092915050565b6000613bdc600e83614a4a565b9150613be782614ed4565b602082019050919050565b6000613bff601283614a5b565b9150613c0a82614efd565b601282019050919050565b6000613c22601583614a4a565b9150613c2d82614f26565b602082019050919050565b6000613c45600783614a5b565b9150613c5082614f4f565b600782019050919050565b6000613c68603283614a4a565b9150613c7382614f78565b604082019050919050565b6000613c8b600e83614a4a565b9150613c9682614fc7565b602082019050919050565b6000613cae600283614a5b565b9150613cb982614ff0565b600282019050919050565b6000613cd1604e83614a5b565b9150613cdc82615019565b604e82019050919050565b6000613cf4602583614a4a565b9150613cff8261508e565b604082019050919050565b6000613d17601c83614a4a565b9150613d22826150dd565b602082019050919050565b6000613d3a605383614a5b565b9150613d4582615106565b605382019050919050565b6000613d5d602783614a4a565b9150613d688261517b565b604082019050919050565b6000613d80605383614a5b565b9150613d8b826151ca565b605382019050919050565b6000613da3602383614a4a565b9150613dae8261523f565b604082019050919050565b6000613dc6603083614a5b565b9150613dd18261528e565b603082019050919050565b6000613de9605383614a5b565b9150613df4826152dd565b605382019050919050565b6000613e0c606283614a5b565b9150613e1782615352565b606282019050919050565b6000613e2f602483614a4a565b9150613e3a826153ed565b604082019050919050565b6000613e52601983614a4a565b9150613e5d8261543c565b602082019050919050565b6000613e75605783614a5b565b9150613e8082615465565b605782019050919050565b6000613e98600a83614a5b565b9150613ea3826154da565b600a82019050919050565b6000613ebb602983614a4a565b9150613ec682615503565b604082019050919050565b6000613ede600183614a5b565b9150613ee982615552565b600182019050919050565b6000613f01602e83614a4a565b9150613f0c8261557b565b604082019050919050565b6000613f24600783614a5b565b9150613f2f826155ca565b600782019050919050565b6000613f47602483614a4a565b9150613f52826155f3565b604082019050919050565b6000613f6a600783614a5b565b9150613f7582615642565b600782019050919050565b6000613f8d603e83614a4a565b9150613f988261566b565b604082019050919050565b6000613fb0602083614a4a565b9150613fbb826156ba565b602082019050919050565b6000613fd3600183614a5b565b9150613fde826156e3565b600182019050919050565b6000613ff6600783614a5b565b91506140018261570c565b600782019050919050565b6000614019600183614a5b565b915061402482615735565b600182019050919050565b600061403c602283614a4a565b91506140478261575e565b604082019050919050565b600061405f601483614a4a565b915061406a826157ad565b602082019050919050565b6000614082601883614a4a565b915061408d826157d6565b602082019050919050565b60006140a5601283614a4a565b91506140b0826157ff565b602082019050919050565b60006140c8602183614a4a565b91506140d382615828565b604082019050919050565b60006140eb604a83614a5b565b91506140f682615877565b604a82019050919050565b600061410e601d83614a5b565b9150614119826158ec565b601d82019050919050565b6000614131602183614a5b565b915061413c82615915565b602182019050919050565b6000614154600083614a3f565b915061415f82615964565b600082019050919050565b6000614177601683614a4a565b915061418282615967565b602082019050919050565b600061419a600a83614a5b565b91506141a582615990565b600a82019050919050565b60006141bd601283614a4a565b91506141c8826159b9565b602082019050919050565b60006141e0602e83614a4a565b91506141eb826159e2565b604082019050919050565b6000614203600683614a5b565b915061420e82615a31565b600682019050919050565b6000614226601a83614a5b565b915061423182615a5a565b601a82019050919050565b6000614249601383614a4a565b915061425482615a83565b602082019050919050565b61426881614c37565b82525050565b61427781614c65565b82525050565b61428681614c65565b82525050565b61429581614c6f565b82525050565b6142a481614c7f565b82525050565b60006142b68285613b9e565b91506142c28284613b9e565b91508190509392505050565b60006142d982613dff565b91506142e4826140de565b91506142ef82613cc4565b91506142fa82613db9565b915061430582613e68565b915061431082613f17565b915061431b82613f5d565b915061432682613d2d565b915061433182613fe9565b915061433d8286613b9e565b915061434882613f5d565b915061435382613d73565b915061435e82613c38565b915061436a8285613b9e565b915061437582613f5d565b915061438082613ddc565b915061438b82613e8b565b91506143978284613b9e565b91506143a282613f5d565b91506143ad826141f6565b9150819050949350505050565b60006143c58261400c565b91506143d082613bf2565b91506143dc8285613b9e565b91506143e782613ca1565b91506143f282614124565b91506143fd8261418d565b91506144098284613b9e565b915061441482613ed1565b915061441f82613fc6565b91508190509392505050565b600061443682614101565b91506144428284613b9e565b915081905092915050565b600061445882614147565b9150819050919050565b600061446d82614219565b91506144798284613b9e565b915081905092915050565b60006020820190506144996000830184613aa1565b92915050565b60006040820190506144b46000830185613aa1565b6144c16020830184613aa1565b9392505050565b60006080820190506144dd6000830187613aa1565b6144ea6020830186613aa1565b6144f7604083018561427d565b81810360608301526145098184613b2c565b905095945050505050565b60006020820190506145296000830184613b0e565b92915050565b60006080820190506145446000830187613b0e565b6145516020830186613b0e565b61455e6040830185613aa1565b61456b606083018461427d565b95945050505050565b600060a0820190506145896000830188613b1d565b614596602083018761429b565b6145a3604083018661425f565b6145b0606083018561428c565b6145bd608083018461428c565b9695505050505050565b600060208201905081810360008301526145e18184613b65565b905092915050565b6000602082019050818103600083015261460281613bcf565b9050919050565b6000602082019050818103600083015261462281613c15565b9050919050565b6000602082019050818103600083015261464281613c5b565b9050919050565b6000602082019050818103600083015261466281613c7e565b9050919050565b6000602082019050818103600083015261468281613ce7565b9050919050565b600060208201905081810360008301526146a281613d0a565b9050919050565b600060208201905081810360008301526146c281613d50565b9050919050565b600060208201905081810360008301526146e281613d96565b9050919050565b6000602082019050818103600083015261470281613e22565b9050919050565b6000602082019050818103600083015261472281613e45565b9050919050565b6000602082019050818103600083015261474281613eae565b9050919050565b6000602082019050818103600083015261476281613ef4565b9050919050565b6000602082019050818103600083015261478281613f3a565b9050919050565b600060208201905081810360008301526147a281613f80565b9050919050565b600060208201905081810360008301526147c281613fa3565b9050919050565b600060208201905081810360008301526147e28161402f565b9050919050565b6000602082019050818103600083015261480281614052565b9050919050565b6000602082019050818103600083015261482281614075565b9050919050565b6000602082019050818103600083015261484281614098565b9050919050565b60006020820190508181036000830152614862816140bb565b9050919050565b600060208201905081810360008301526148828161416a565b9050919050565b600060208201905081810360008301526148a2816141b0565b9050919050565b600060208201905081810360008301526148c2816141d3565b9050919050565b600060208201905081810360008301526148e28161423c565b9050919050565b60006020820190506148fe600083018461427d565b92915050565b6000604082019050614919600083018561427d565b818103602083015261492b8184613ab0565b90509392505050565b6000604082019050614949600083018561427d565b614956602083018461428c565b9392505050565b6000614967614978565b90506149738282614d14565b919050565b6000604051905090565b600067ffffffffffffffff82111561499d5761499c614e7b565b5b602082029050602081019050919050565b600067ffffffffffffffff8211156149c9576149c8614e7b565b5b6149d282614ec3565b9050602081019050919050565b6000819050602082019050919050565b600081519050919050565b600081519050919050565b600081519050919050565b6000602082019050919050565b600082825260208201905092915050565b600082825260208201905092915050565b600081905092915050565b600082825260208201905092915050565b600081905092915050565b6000614a7182614c65565b9150614a7c83614c65565b9250827fffffffffffffffffffffffffffffffffffffffffffffffffffffffffffffffff03821115614ab157614ab0614dbf565b5b828201905092915050565b6000614ac782614c93565b9150614ad283614c93565b92508260ff03821115614ae857614ae7614dbf565b5b828201905092915050565b6000614afe82614c65565b9150614b0983614c65565b925082614b1957614b18614dee565b5b828204905092915050565b6000614b2f82614c93565b9150614b3a83614c93565b925082614b4a57614b49614dee565b5b828204905092915050565b6000614b6082614c65565b9150614b6b83614c65565b9250817fffffffffffffffffffffffffffffffffffffffffffffffffffffffffffffffff0483118215151615614ba457614ba3614dbf565b5b828202905092915050565b6000614bba82614c65565b9150614bc583614c65565b925082821015614bd857614bd7614dbf565b5b828203905092915050565b6000614bee82614c45565b9050919050565b60008115159050919050565b6000819050919050565b60007fffffffff0000000000000000000000000000000000000000000000000000000082169050919050565b600061ffff82169050919050565b600073ffffffffffffffffffffffffffffffffffffffff82169050919050565b6000819050919050565b600063ffffffff82169050919050565b600067ffffffffffffffff82169050919050565b600060ff82169050919050565b82818337600083830152505050565b60005b83811015614ccd578082015181840152602081019050614cb2565b83811115614cdc576000848401525b50505050565b60006002820490506001821680614cfa57607f821691505b60208210811415614d0e57614d0d614e1d565b5b50919050565b614d1d82614ec3565b810181811067ffffffffffffffff82111715614d3c57614d3b614e7b565b5b80604052505050565b6000614d5082614c65565b91507fffffffffffffffffffffffffffffffffffffffffffffffffffffffffffffffff821415614d8357614d82614dbf565b5b600182019050919050565b6000614d9982614c65565b9150614da483614c65565b925082614db457614db3614dee565b5b828206905092915050565b7f4e487b7100000000000000000000000000000000000000000000000000000000600052601160045260246000fd5b7f4e487b7100000000000000000000000000000000000000000000000000000000600052601260045260246000fd5b7f4e487b7100000000000000000000000000000000000000000000000000000000600052602260045260246000fd5b7f4e487b7100000000000000000000000000000000000000000000000000000000600052603260045260246000fd5b7f4e487b7100000000000000000000000000000000000000000000000000000000600052604160045260246000fd5b600080fd5b600080fd5b600080fd5b600080fd5b600080fd5b6000601f19601f8301169050919050565b7f4e65656420617070726f76616c2e000000000000000000000000000000000000600082015250565b7f226e616d65223a202257617272696f7220230000000000000000000000000000600082015250565b7f48617665206e6f20726573706f6e7365207965742e0000000000000000000000600082015250565b7f506f7765723a2000000000000000000000000000000000000000000000000000600082015250565b7f4552433732313a207472616e7366657220746f206e6f6e20455243373231526560008201527f63656976657220696d706c656d656e7465720000000000000000000000000000602082015250565b7f436f756c646e27742073656e742e000000000000000000000000000000000000600082015250565b7f222c000000000000000000000000000000000000000000000000000000000000600082015250565b7f3c7374796c653e2e6261736543686172207b2066696c6c3a2077686974653b2060008201527f666f6e742d66616d696c793a2073657269663b20666f6e742d73697a653a203260208201527f3470783b207d3c2f7374796c653e000000000000000000000000000000000000604082015250565b7f4552433732313a207472616e736665722066726f6d20696e636f72726563742060008201527f6f776e6572000000000000000000000000000000000000000000000000000000602082015250565b7f4552433732313a20746f6b656e20616c7265616479206d696e74656400000000600082015250565b7f3c7465787420783d223530252220793d223435252220636c6173733d2262617360008201527f652220646f6d696e616e742d626173656c696e653d226d6964646c652220746560208201527f78742d616e63686f723d226d6964646c65223e00000000000000000000000000604082015250565b7f596f752063616e2774206669676874207769746820796f7572206f776e20776160008201527f7272696f72732e00000000000000000000000000000000000000000000000000602082015250565b7f3c7465787420783d223530252220793d223535252220636c6173733d2262617360008201527f652220646f6d696e616e742d626173656c696e653d226d6964646c652220746560208201527f78742d616e63686f723d226d6964646c65223e00000000000000000000000000604082015250565b7f57617272696f722068617320616c7265616479206f70656e20666f722066696760008201527f68742e0000000000000000000000000000000000000000000000000000000000602082015250565b7f3c726563742077696474683d223130302522206865696768743d22313030252260008201527f2066696c6c3d22626c61636b22202f3e00000000000000000000000000000000602082015250565b7f3c7465787420783d223530252220793d223635252220636c6173733d2262617360008201527f652220646f6d696e616e742d626173656c696e653d226d6964646c652220746560208201527f78742d616e63686f723d226d6964646c65223e00000000000000000000000000604082015250565b7f3c73766720786d6c6e733d22687474703a2f2f7777772e77332e6f72672f323060008201527f30302f73766722207072657365727665417370656374526174696f3d22784d6960208201527f6e594d696e206d656574222076696577426f783d22302030203335302033353060408201527f223e000000000000000000000000000000000000000000000000000000000000606082015250565b7f4552433732313a207472616e7366657220746f20746865207a65726f2061646460008201527f7265737300000000000000000000000000000000000000000000000000000000602082015250565b7f4552433732313a20617070726f766520746f2063616c6c657200000000000000600082015250565b7f3c7465787420783d223530252220793d223239252220636c6173733d2262617360008201527f65436861722220646f6d696e616e742d626173656c696e653d226d6964646c6560208201527f2220746578742d616e63686f723d226d6964646c65223e000000000000000000604082015250565b7f537472656e6774683a2000000000000000000000000000000000000000000000600082015250565b7f4552433732313a2061646472657373207a65726f206973206e6f74206120766160008201527f6c6964206f776e65720000000000000000000000000000000000000000000000602082015250565b7f2200000000000000000000000000000000000000000000000000000000000000600082015250565b7f45524337323155524953746f726167653a2055524920736574206f66206e6f6e60008201527f6578697374656e7420746f6b656e000000000000000000000000000000000000602082015250565b7f57617272696f7200000000000000000000000000000000000000000000000000600082015250565b7f456e656d792077617272696f72206973206e6f74206f70656e20666f7220666960008201527f6768742e00000000000000000000000000000000000000000000000000000000602082015250565b7f3c2f746578743e00000000000000000000000000000000000000000000000000600082015250565b7f4552433732313a20617070726f76652063616c6c6572206973206e6f7420746f60008201527f6b656e206f776e6572206e6f7220617070726f76656420666f7220616c6c0000602082015250565b7f4552433732313a206d696e7420746f20746865207a65726f2061646472657373600082015250565b7f7d00000000000000000000000000000000000000000000000000000000000000600082015250565b7f4c6576656c3a2000000000000000000000000000000000000000000000000000600082015250565b7f7b00000000000000000000000000000000000000000000000000000000000000600082015250565b7f596f7520617265206e6f7420746865206f776e6572206f662074686973204e4660008201527f542e000000000000000000000000000000000000000000000000000000000000602082015250565b7f526571756573742073656e74206265666f72652e000000000000000000000000600082015250565b7f4552433732313a20696e76616c696420746f6b656e2049440000000000000000600082015250565b7f52657175657374206e6f7420666f756e64210000000000000000000000000000600082015250565b7f4552433732313a20617070726f76616c20746f2063757272656e74206f776e6560008201527f7200000000000000000000000000000000000000000000000000000000000000602082015250565b7f3c7374796c653e2e62617365207b2066696c6c3a2077686974653b20666f6e7460008201527f2d66616d696c793a2073657269663b20666f6e742d73697a653a20313470783b60208201527f207d3c2f7374796c653e00000000000000000000000000000000000000000000604082015250565b7f646174613a6170706c69636174696f6e2f6a736f6e3b6261736536342c000000600082015250565b7f226465736372697074696f6e223a202257617272696f7273206f66204e46542260008201527f2c00000000000000000000000000000000000000000000000000000000000000602082015250565b50565b7f54686973204e4654207374696c6c206c6f636b65642e00000000000000000000600082015250565b7f22696d616765223a202200000000000000000000000000000000000000000000600082015250565b7f5468657265206973206e6f20746f6b656e2e0000000000000000000000000000600082015250565b7f4552433732313a2063616c6c6572206973206e6f7420746f6b656e206f776e6560008201527f72206e6f7220617070726f766564000000000000000000000000000000000000602082015250565b7f3c2f7376673e0000000000000000000000000000000000000000000000000000600082015250565b7f646174613a696d6167652f7376672b786d6c3b6261736536342c000000000000600082015250565b7f496e73756666696369656e742066756e64732e00000000000000000000000000600082015250565b615ab581614be3565b8114615ac057600080fd5b50565b615acc81614bf5565b8114615ad757600080fd5b50565b615ae381614c0b565b8114615aee57600080fd5b50565b615afa81614c65565b8114615b0557600080fd5b5056fe4142434445464748494a4b4c4d4e4f505152535455565758595a6162636465666768696a6b6c6d6e6f707172737475767778797a303132333435363738392b2fa26469706673582212205d50b084fca1040ebee4a39d4404d8bf1e5bcf0230bf629fe35102049a7ee22b64736f6c63430008070033",
  "devdoc": {
    "kind": "dev",
    "methods": {
      "approve(address,uint256)": {
        "details": "See {IERC721-approve}."
      },
      "balanceOf(address)": {
        "details": "See {IERC721-balanceOf}."
      },
      "getApproved(uint256)": {
        "details": "See {IERC721-getApproved}."
      },
      "isApprovedForAll(address,address)": {
        "details": "See {IERC721-isApprovedForAll}."
      },
      "name()": {
        "details": "See {IERC721Metadata-name}."
      },
      "ownerOf(uint256)": {
        "details": "See {IERC721-ownerOf}."
      },
      "safeTransferFrom(address,address,uint256)": {
        "details": "See {IERC721-safeTransferFrom}."
      },
      "safeTransferFrom(address,address,uint256,bytes)": {
        "details": "See {IERC721-safeTransferFrom}."
      },
      "setApprovalForAll(address,bool)": {
        "details": "See {IERC721-setApprovalForAll}."
      },
      "supportsInterface(bytes4)": {
        "details": "See {IERC165-supportsInterface}."
      },
      "symbol()": {
        "details": "See {IERC721Metadata-symbol}."
      },
      "tokenURI(uint256)": {
        "details": "See {IERC721Metadata-tokenURI}."
      },
      "transferFrom(address,address,uint256)": {
        "details": "See {IERC721-transferFrom}."
      }
    },
    "version": 1
  },
  "userdoc": {
    "kind": "user",
    "methods": {},
    "version": 1
  },
  "storageLayout": {
    "storage": [
      {
        "astId": 179,
        "contract": "contracts/Warrior721.sol:Warrior721",
        "label": "_name",
        "offset": 0,
        "slot": "0",
        "type": "t_string_storage"
      },
      {
        "astId": 181,
        "contract": "contracts/Warrior721.sol:Warrior721",
        "label": "_symbol",
        "offset": 0,
        "slot": "1",
        "type": "t_string_storage"
      },
      {
        "astId": 185,
        "contract": "contracts/Warrior721.sol:Warrior721",
        "label": "_owners",
        "offset": 0,
        "slot": "2",
        "type": "t_mapping(t_uint256,t_address)"
      },
      {
        "astId": 189,
        "contract": "contracts/Warrior721.sol:Warrior721",
        "label": "_balances",
        "offset": 0,
        "slot": "3",
        "type": "t_mapping(t_address,t_uint256)"
      },
      {
        "astId": 193,
        "contract": "contracts/Warrior721.sol:Warrior721",
        "label": "_tokenApprovals",
        "offset": 0,
        "slot": "4",
        "type": "t_mapping(t_uint256,t_address)"
      },
      {
        "astId": 199,
        "contract": "contracts/Warrior721.sol:Warrior721",
        "label": "_operatorApprovals",
        "offset": 0,
        "slot": "5",
        "type": "t_mapping(t_address,t_mapping(t_address,t_bool))"
      },
      {
        "astId": 1167,
        "contract": "contracts/Warrior721.sol:Warrior721",
        "label": "_tokenURIs",
        "offset": 0,
        "slot": "6",
        "type": "t_mapping(t_uint256,t_string_storage)"
      },
      {
        "astId": 2045,
        "contract": "contracts/Warrior721.sol:Warrior721",
        "label": "_tokenIdCounter",
        "offset": 0,
        "slot": "7",
        "type": "t_struct(Counter)1676_storage"
      },
      {
        "astId": 2047,
        "contract": "contracts/Warrior721.sol:Warrior721",
        "label": "treasury",
        "offset": 0,
        "slot": "8",
        "type": "t_address_payable"
      },
      {
        "astId": 2072,
        "contract": "contracts/Warrior721.sol:Warrior721",
        "label": "warriors",
        "offset": 0,
        "slot": "9",
        "type": "t_mapping(t_uint256,t_struct(NFT)2058_storage)"
      },
      {
        "astId": 2076,
        "contract": "contracts/Warrior721.sol:Warrior721",
        "label": "vrfCoordinator",
        "offset": 0,
        "slot": "10",
        "type": "t_address"
      },
      {
        "astId": 2078,
        "contract": "contracts/Warrior721.sol:Warrior721",
        "label": "s_keyHash",
        "offset": 0,
        "slot": "11",
        "type": "t_bytes32"
      },
      {
        "astId": 2080,
        "contract": "contracts/Warrior721.sol:Warrior721",
        "label": "callbackGasLimit",
        "offset": 0,
        "slot": "12",
        "type": "t_uint32"
      },
      {
        "astId": 2103,
        "contract": "contracts/Warrior721.sol:Warrior721",
        "label": "s_requests",
        "offset": 0,
        "slot": "13",
        "type": "t_mapping(t_uint256,t_struct(RequestStatus)2098_storage)"
      },
      {
        "astId": 2106,
        "contract": "contracts/Warrior721.sol:Warrior721",
        "label": "COORDINATOR",
        "offset": 0,
        "slot": "14",
        "type": "t_contract(VRFCoordinatorV2Interface)153"
      },
      {
        "astId": 2109,
        "contract": "contracts/Warrior721.sol:Warrior721",
        "label": "requestIds",
        "offset": 0,
        "slot": "15",
        "type": "t_array(t_uint256)dyn_storage"
      },
      {
        "astId": 2111,
        "contract": "contracts/Warrior721.sol:Warrior721",
        "label": "lastRequestId",
        "offset": 0,
        "slot": "16",
        "type": "t_uint256"
      },
      {
        "astId": 2115,
        "contract": "contracts/Warrior721.sol:Warrior721",
        "label": "tokenIdToRequest",
        "offset": 0,
        "slot": "17",
        "type": "t_mapping(t_uint256,t_bool)"
      }
    ],
    "types": {
      "t_address": {
        "encoding": "inplace",
        "label": "address",
        "numberOfBytes": "20"
      },
      "t_address_payable": {
        "encoding": "inplace",
        "label": "address payable",
        "numberOfBytes": "20"
      },
      "t_array(t_uint256)dyn_storage": {
        "base": "t_uint256",
        "encoding": "dynamic_array",
        "label": "uint256[]",
        "numberOfBytes": "32"
      },
      "t_bool": {
        "encoding": "inplace",
        "label": "bool",
        "numberOfBytes": "1"
      },
      "t_bytes32": {
        "encoding": "inplace",
        "label": "bytes32",
        "numberOfBytes": "32"
      },
      "t_contract(VRFCoordinatorV2Interface)153": {
        "encoding": "inplace",
        "label": "contract VRFCoordinatorV2Interface",
        "numberOfBytes": "20"
      },
      "t_mapping(t_address,t_bool)": {
        "encoding": "mapping",
        "key": "t_address",
        "label": "mapping(address => bool)",
        "numberOfBytes": "32",
        "value": "t_bool"
      },
      "t_mapping(t_address,t_mapping(t_address,t_bool))": {
        "encoding": "mapping",
        "key": "t_address",
        "label": "mapping(address => mapping(address => bool))",
        "numberOfBytes": "32",
        "value": "t_mapping(t_address,t_bool)"
      },
      "t_mapping(t_address,t_uint256)": {
        "encoding": "mapping",
        "key": "t_address",
        "label": "mapping(address => uint256)",
        "numberOfBytes": "32",
        "value": "t_uint256"
      },
      "t_mapping(t_uint256,t_address)": {
        "encoding": "mapping",
        "key": "t_uint256",
        "label": "mapping(uint256 => address)",
        "numberOfBytes": "32",
        "value": "t_address"
      },
      "t_mapping(t_uint256,t_bool)": {
        "encoding": "mapping",
        "key": "t_uint256",
        "label": "mapping(uint256 => bool)",
        "numberOfBytes": "32",
        "value": "t_bool"
      },
      "t_mapping(t_uint256,t_string_storage)": {
        "encoding": "mapping",
        "key": "t_uint256",
        "label": "mapping(uint256 => string)",
        "numberOfBytes": "32",
        "value": "t_string_storage"
      },
      "t_mapping(t_uint256,t_struct(NFT)2058_storage)": {
        "encoding": "mapping",
        "key": "t_uint256",
        "label": "mapping(uint256 => struct Warrior721.NFT)",
        "numberOfBytes": "32",
        "value": "t_struct(NFT)2058_storage"
      },
      "t_mapping(t_uint256,t_struct(RequestStatus)2098_storage)": {
        "encoding": "mapping",
        "key": "t_uint256",
        "label": "mapping(uint256 => struct Warrior721.RequestStatus)",
        "numberOfBytes": "32",
        "value": "t_struct(RequestStatus)2098_storage"
      },
      "t_string_storage": {
        "encoding": "bytes",
        "label": "string",
        "numberOfBytes": "32"
      },
      "t_struct(Counter)1676_storage": {
        "encoding": "inplace",
        "label": "struct Counters.Counter",
        "members": [
          {
            "astId": 1675,
            "contract": "contracts/Warrior721.sol:Warrior721",
            "label": "_value",
            "offset": 0,
            "slot": "0",
            "type": "t_uint256"
          }
        ],
        "numberOfBytes": "32"
      },
      "t_struct(NFT)2058_storage": {
        "encoding": "inplace",
        "label": "struct Warrior721.NFT",
        "members": [
          {
            "astId": 2049,
            "contract": "contracts/Warrior721.sol:Warrior721",
            "label": "timeLock",
            "offset": 0,
            "slot": "0",
            "type": "t_uint256"
          },
          {
            "astId": 2051,
            "contract": "contracts/Warrior721.sol:Warrior721",
            "label": "power",
            "offset": 0,
            "slot": "1",
            "type": "t_uint256"
          },
          {
            "astId": 2053,
            "contract": "contracts/Warrior721.sol:Warrior721",
            "label": "strength",
            "offset": 0,
            "slot": "2",
            "type": "t_uint256"
          },
          {
            "astId": 2055,
            "contract": "contracts/Warrior721.sol:Warrior721",
            "label": "level",
            "offset": 0,
            "slot": "3",
            "type": "t_uint8"
          },
          {
            "astId": 2057,
            "contract": "contracts/Warrior721.sol:Warrior721",
            "label": "openForFight",
            "offset": 1,
            "slot": "3",
            "type": "t_bool"
          }
        ],
        "numberOfBytes": "128"
      },
      "t_struct(RequestStatus)2098_storage": {
        "encoding": "inplace",
        "label": "struct Warrior721.RequestStatus",
        "members": [
          {
            "astId": 2088,
            "contract": "contracts/Warrior721.sol:Warrior721",
            "label": "fulfilled",
            "offset": 0,
            "slot": "0",
            "type": "t_bool"
          },
          {
            "astId": 2090,
            "contract": "contracts/Warrior721.sol:Warrior721",
            "label": "exists",
            "offset": 1,
            "slot": "0",
            "type": "t_bool"
          },
          {
            "astId": 2093,
            "contract": "contracts/Warrior721.sol:Warrior721",
            "label": "randomWords",
            "offset": 0,
            "slot": "1",
            "type": "t_array(t_uint256)dyn_storage"
          },
          {
            "astId": 2095,
            "contract": "contracts/Warrior721.sol:Warrior721",
            "label": "requestOwner",
            "offset": 0,
            "slot": "2",
            "type": "t_address"
          },
          {
            "astId": 2097,
            "contract": "contracts/Warrior721.sol:Warrior721",
            "label": "requestTokenId",
            "offset": 0,
            "slot": "3",
            "type": "t_uint256"
          }
        ],
        "numberOfBytes": "128"
      },
      "t_uint256": {
        "encoding": "inplace",
        "label": "uint256",
        "numberOfBytes": "32"
      },
      "t_uint32": {
        "encoding": "inplace",
        "label": "uint32",
        "numberOfBytes": "4"
      },
      "t_uint8": {
        "encoding": "inplace",
        "label": "uint8",
        "numberOfBytes": "1"
      }
    }
  }
}